{
  "contractName": "TodoList",
  "abi": [
    {
      "inputs": [],
      "stateMutability": "nonpayable",
      "type": "constructor"
    },
    {
      "anonymous": false,
      "inputs": [
        {
          "indexed": false,
          "internalType": "uint256",
          "name": "id",
          "type": "uint256"
        },
        {
          "indexed": false,
          "internalType": "bool",
          "name": "completed",
          "type": "bool"
        }
      ],
      "name": "taskCompleted",
      "type": "event"
    },
    {
      "anonymous": false,
      "inputs": [
        {
          "indexed": false,
          "internalType": "uint256",
          "name": "id",
          "type": "uint256"
        },
        {
          "indexed": false,
          "internalType": "string",
          "name": "name",
          "type": "string"
        },
        {
          "indexed": false,
          "internalType": "bool",
          "name": "completed",
          "type": "bool"
        }
      ],
      "name": "taskCreated",
      "type": "event"
    },
    {
      "inputs": [
        {
          "internalType": "address",
          "name": "",
          "type": "address"
        },
        {
          "internalType": "uint256",
          "name": "",
          "type": "uint256"
        }
      ],
      "name": "Tasks",
      "outputs": [
        {
          "internalType": "uint256",
          "name": "id",
          "type": "uint256"
        },
        {
          "internalType": "string",
          "name": "name",
          "type": "string"
        },
        {
          "internalType": "bool",
          "name": "completed",
          "type": "bool"
        }
      ],
      "stateMutability": "view",
      "type": "function",
      "constant": true
    },
    {
      "inputs": [
        {
          "internalType": "address",
          "name": "",
          "type": "address"
        }
      ],
      "name": "taskCount",
      "outputs": [
        {
          "internalType": "uint256",
          "name": "",
          "type": "uint256"
        }
      ],
      "stateMutability": "view",
      "type": "function",
      "constant": true
    },
    {
      "inputs": [
        {
          "internalType": "string",
          "name": "_name",
          "type": "string"
        }
      ],
      "name": "createTask",
      "outputs": [],
      "stateMutability": "nonpayable",
      "type": "function"
    },
    {
      "inputs": [
        {
          "internalType": "uint256",
          "name": "_id",
          "type": "uint256"
        }
      ],
      "name": "changeTaskStatus",
      "outputs": [],
      "stateMutability": "nonpayable",
      "type": "function"
    }
  ],
  "bytecode": "0x60806040523480156200001157600080fd5b50620000586040518060400160405280600b81526020017f68656c6c6f20776f726c640000000000000000000000000000000000000000008152506200005e60201b60201c565b620004a6565b6000600160003373ffffffffffffffffffffffffffffffffffffffff1673ffffffffffffffffffffffffffffffffffffffff1681526020019081526020016000205490506040518060600160405280828152602001838152602001600015158152506000803373ffffffffffffffffffffffffffffffffffffffff1673ffffffffffffffffffffffffffffffffffffffff168152602001908152602001600020600083815260200190815260200160002060008201518160000155602082015181600101908051906020019062000137929190620001f4565b5060408201518160020160006101000a81548160ff0219169083151502179055509050507f7ffc5def84f84c9a24e3f0ad22a6aa1dcf1626b3936280fe2f8e5d38c636b64181836000604051620001919392919062000380565b60405180910390a1600160003373ffffffffffffffffffffffffffffffffffffffff1673ffffffffffffffffffffffffffffffffffffffff1681526020019081526020016000206000815480929190620001eb90620003f3565b91905055505050565b828054620002029062000470565b90600052602060002090601f01602090048101928262000226576000855562000272565b82601f106200024157805160ff191683800117855562000272565b8280016001018555821562000272579182015b828111156200027157825182559160200191906001019062000254565b5b50905062000281919062000285565b5090565b5b80821115620002a057600081600090555060010162000286565b5090565b6000819050919050565b620002b981620002a4565b82525050565b600081519050919050565b600082825260208201905092915050565b60005b83811015620002fb578082015181840152602081019050620002de565b838111156200030b576000848401525b50505050565b6000601f19601f8301169050919050565b60006200032f82620002bf565b6200033b8185620002ca565b93506200034d818560208601620002db565b620003588162000311565b840191505092915050565b60008115159050919050565b6200037a8162000363565b82525050565b6000606082019050620003976000830186620002ae565b8181036020830152620003ab818562000322565b9050620003bc60408301846200036f565b949350505050565b7f4e487b7100000000000000000000000000000000000000000000000000000000600052601160045260246000fd5b60006200040082620002a4565b91507fffffffffffffffffffffffffffffffffffffffffffffffffffffffffffffffff821415620004365762000435620003c4565b5b600182019050919050565b7f4e487b7100000000000000000000000000000000000000000000000000000000600052602260045260246000fd5b600060028204905060018216806200048957607f821691505b60208210811415620004a0576200049f62000441565b5b50919050565b610b1480620004b66000396000f3fe608060405234801561001057600080fd5b506004361061004c5760003560e01c8063082d1abb14610051578063111002aa146100815780637148e5751461009d578063b2e554e0146100cf575b600080fd5b61006b60048036038101906100669190610672565b6100eb565b60405161007891906106b8565b60405180910390f35b61009b60048036038101906100969190610819565b610103565b005b6100b760048036038101906100b2919061088e565b610293565b6040516100c693929190610971565b60405180910390f35b6100e960048036038101906100e491906109af565b61035f565b005b60016020528060005260406000206000915090505481565b6000600160003373ffffffffffffffffffffffffffffffffffffffff1673ffffffffffffffffffffffffffffffffffffffff1681526020019081526020016000205490506040518060600160405280828152602001838152602001600015158152506000803373ffffffffffffffffffffffffffffffffffffffff1673ffffffffffffffffffffffffffffffffffffffff16815260200190815260200160002060008381526020019081526020016000206000820151816000015560208201518160010190805190602001906101da92919061055d565b5060408201518160020160006101000a81548160ff0219169083151502179055509050507f7ffc5def84f84c9a24e3f0ad22a6aa1dcf1626b3936280fe2f8e5d38c636b6418183600060405161023293929190610971565b60405180910390a1600160003373ffffffffffffffffffffffffffffffffffffffff1673ffffffffffffffffffffffffffffffffffffffff168152602001908152602001600020600081548092919061028a90610a0b565b91905055505050565b6000602052816000526040600020602052806000526040600020600091509150508060000154908060010180546102c990610a83565b80601f01602080910402602001604051908101604052809291908181526020018280546102f590610a83565b80156103425780601f1061031757610100808354040283529160200191610342565b820191906000526020600020905b81548152906001019060200180831161032557829003601f168201915b5050505050908060020160009054906101000a900460ff16905083565b60008060003373ffffffffffffffffffffffffffffffffffffffff1673ffffffffffffffffffffffffffffffffffffffff1681526020019081526020016000206000838152602001908152602001600020604051806060016040529081600082015481526020016001820180546103d590610a83565b80601f016020809104026020016040519081016040528092919081815260200182805461040190610a83565b801561044e5780601f106104235761010080835404028352916020019161044e565b820191906000526020600020905b81548152906001019060200180831161043157829003601f168201915b505050505081526020016002820160009054906101000a900460ff16151515158152505090506001816040019015159081151581525050806000803373ffffffffffffffffffffffffffffffffffffffff1673ffffffffffffffffffffffffffffffffffffffff16815260200190815260200160002060008481526020019081526020016000206000820151816000015560208201518160010190805190602001906104fb92919061055d565b5060408201518160020160006101000a81548160ff0219169083151502179055509050507ffc8c3643622669a0bb21133ffa1738f6d5c2df6b162da4fed93691abb53c4656826001604051610551929190610ab5565b60405180910390a15050565b82805461056990610a83565b90600052602060002090601f01602090048101928261058b57600085556105d2565b82601f106105a457805160ff19168380011785556105d2565b828001600101855582156105d2579182015b828111156105d15782518255916020019190600101906105b6565b5b5090506105df91906105e3565b5090565b5b808211156105fc5760008160009055506001016105e4565b5090565b6000604051905090565b600080fd5b600080fd5b600073ffffffffffffffffffffffffffffffffffffffff82169050919050565b600061063f82610614565b9050919050565b61064f81610634565b811461065a57600080fd5b50565b60008135905061066c81610646565b92915050565b6000602082840312156106885761068761060a565b5b60006106968482850161065d565b91505092915050565b6000819050919050565b6106b28161069f565b82525050565b60006020820190506106cd60008301846106a9565b92915050565b600080fd5b600080fd5b6000601f19601f8301169050919050565b7f4e487b7100000000000000000000000000000000000000000000000000000000600052604160045260246000fd5b610726826106dd565b810181811067ffffffffffffffff82111715610745576107446106ee565b5b80604052505050565b6000610758610600565b9050610764828261071d565b919050565b600067ffffffffffffffff821115610784576107836106ee565b5b61078d826106dd565b9050602081019050919050565b82818337600083830152505050565b60006107bc6107b784610769565b61074e565b9050828152602081018484840111156107d8576107d76106d8565b5b6107e384828561079a565b509392505050565b600082601f830112610800576107ff6106d3565b5b81356108108482602086016107a9565b91505092915050565b60006020828403121561082f5761082e61060a565b5b600082013567ffffffffffffffff81111561084d5761084c61060f565b5b610859848285016107eb565b91505092915050565b61086b8161069f565b811461087657600080fd5b50565b60008135905061088881610862565b92915050565b600080604083850312156108a5576108a461060a565b5b60006108b38582860161065d565b92505060206108c485828601610879565b9150509250929050565b600081519050919050565b600082825260208201905092915050565b60005b838110156109085780820151818401526020810190506108ed565b83811115610917576000848401525b50505050565b6000610928826108ce565b61093281856108d9565b93506109428185602086016108ea565b61094b816106dd565b840191505092915050565b60008115159050919050565b61096b81610956565b82525050565b600060608201905061098660008301866106a9565b8181036020830152610998818561091d565b90506109a76040830184610962565b949350505050565b6000602082840312156109c5576109c461060a565b5b60006109d384828501610879565b91505092915050565b7f4e487b7100000000000000000000000000000000000000000000000000000000600052601160045260246000fd5b6000610a168261069f565b91507fffffffffffffffffffffffffffffffffffffffffffffffffffffffffffffffff821415610a4957610a486109dc565b5b600182019050919050565b7f4e487b7100000000000000000000000000000000000000000000000000000000600052602260045260246000fd5b60006002820490506001821680610a9b57607f821691505b60208210811415610aaf57610aae610a54565b5b50919050565b6000604082019050610aca60008301856106a9565b610ad76020830184610962565b939250505056fea26469706673582212207b03a25dc33d4a254c99e5dc39b556dad66b29d9fe2189fc91ad414c7a639bfd64736f6c634300080b0033",
  "immutableReferences": {},
  "source": "// SPDX-License-Identifier: MIT\npragma solidity >=0.4.22 <0.9.0;\ncontract TodoList{\n    struct Task{\n        uint id;\n        string name;\n        bool completed;\n    }\n    event taskCreated(\n        uint id,\n        string name,\n        bool completed\n    );\n    event taskCompleted(\n        uint id,\n        bool completed\n    );\n    mapping(address=>mapping(uint =>Task)) public Tasks;\n    mapping(address=>uint) public taskCount;\n\n    constructor(){\n        createTask(\"hello world\");\n    }\n    function createTask(string memory _name) public{\n        uint task_number=taskCount[msg.sender];\n        Tasks[msg.sender][task_number]=Task(task_number,_name,false);\n        emit taskCreated(task_number, _name, false);\n        taskCount[msg.sender]++;\n    }\n    function changeTaskStatus(uint _id) public{\n        Task memory task=Tasks[msg.sender][_id];\n        task.completed=true;\n        Tasks[msg.sender][_id]=task;\n        emit taskCompleted(_id, true);\n    }\n}",
  "sourcePath": "/Users/apple/Documents/BlockChain/todo_blockchain/contracts/TodoList.sol",
  "compiler": {
    "name": "solc",
    "version": "0.8.11+commit.d7f03943.Emscripten.clang"
  },
  "schemaVersion": "3.4.4",
  "updatedAt": "2022-05-27T06:55:52.569Z",
  "networkType": "ethereum",
  "devdoc": {
    "kind": "dev",
    "methods": {},
    "version": 1
  },
  "userdoc": {
    "kind": "user",
    "methods": {},
    "version": 1
  }
}